{
  "contractName": "Election",
  "abi": [
    {
      "constant": true,
      "inputs": [
        {
          "name": "",
          "type": "address"
        }
      ],
      "name": "glasaci",
      "outputs": [
        {
          "name": "",
          "type": "bool"
        }
      ],
      "payable": false,
      "stateMutability": "view",
      "type": "function"
    },
    {
      "constant": true,
      "inputs": [],
      "name": "brojKandidata",
      "outputs": [
        {
          "name": "",
          "type": "uint256"
        }
      ],
      "payable": false,
      "stateMutability": "view",
      "type": "function"
    },
    {
      "constant": true,
      "inputs": [
        {
          "name": "",
          "type": "uint256"
        }
      ],
      "name": "kandidati",
      "outputs": [
        {
          "name": "id",
          "type": "uint256"
        },
        {
          "name": "ime",
          "type": "string"
        },
        {
          "name": "brojGlasova",
          "type": "uint256"
        }
      ],
      "payable": false,
      "stateMutability": "view",
      "type": "function"
    },
    {
      "inputs": [],
      "payable": false,
      "stateMutability": "nonpayable",
      "type": "constructor"
    },
    {
      "anonymous": false,
      "inputs": [
        {
          "indexed": true,
          "name": "_candidateId",
          "type": "uint256"
        }
      ],
      "name": "votedEvent",
      "type": "event"
    },
    {
      "constant": false,
      "inputs": [
        {
          "name": "_kandidatId",
          "type": "uint256"
        }
      ],
      "name": "glasaj",
      "outputs": [],
      "payable": false,
      "stateMutability": "nonpayable",
      "type": "function"
    }
  ],
  "bytecode": "0x608060405234801561001057600080fd5b506100556040518060400160405280600c81526020017f446f6e616c64205472756d70000000000000000000000000000000000000000081525061009e60201b60201c565b6100996040518060400160405280601981526020017f447761796e65202754686520526f636b27204a6f686e736f6e0000000000000081525061009e60201b60201c565b6101be565b6002600081548092919060010191905055506040518060600160405280600254815260200182815260200160008152506000806002548152602001908152602001600020600082015181600001556020820151816001019080519060200190610108929190610119565b506040820151816002015590505050565b828054600181600116156101000203166002900490600052602060002090601f016020900481019282601f1061015a57805160ff1916838001178555610188565b82800160010185558215610188579182015b8281111561018757825182559160200191906001019061016c565b5b5090506101959190610199565b5090565b6101bb91905b808211156101b757600081600090555060010161019f565b5090565b90565b6103e0806101cd6000396000f3fe608060405234801561001057600080fd5b506004361061004c5760003560e01c80635696c04b14610051578063740ee0e0146100ad57806384b0b3e5146100db578063d91bbc5f146100f9575b600080fd5b6100936004803603602081101561006757600080fd5b81019080803573ffffffffffffffffffffffffffffffffffffffff1690602001909291905050506101ae565b604051808215151515815260200191505060405180910390f35b6100d9600480360360208110156100c357600080fd5b81019080803590602001909291905050506101ce565b005b6100e36102ec565b6040518082815260200191505060405180910390f35b6101256004803603602081101561010f57600080fd5b81019080803590602001909291905050506102f2565b6040518084815260200180602001838152602001828103825284818151815260200191508051906020019080838360005b83811015610171578082015181840152602081019050610156565b50505050905090810190601f16801561019e5780820380516001836020036101000a031916815260200191505b5094505050505060405180910390f35b60016020528060005260406000206000915054906101000a900460ff1681565b600160003373ffffffffffffffffffffffffffffffffffffffff1673ffffffffffffffffffffffffffffffffffffffff16815260200190815260200160002060009054906101000a900460ff161561022557600080fd5b60008111801561023757506002548111155b61024057600080fd5b60018060003373ffffffffffffffffffffffffffffffffffffffff1673ffffffffffffffffffffffffffffffffffffffff16815260200190815260200160002060006101000a81548160ff02191690831515021790555060008082815260200190815260200160002060020160008154809291906001019190505550807ffff3c900d938d21d0990d786e819f29b8d05c1ef587b462b939609625b684b1660405160405180910390a250565b60025481565b6000602052806000526040600020600091509050806000015490806001018054600181600116156101000203166002900480601f0160208091040260200160405190810160405280929190818152602001828054600181600116156101000203166002900480156103a45780601f10610379576101008083540402835291602001916103a4565b820191906000526020600020905b81548152906001019060200180831161038757829003601f168201915b505050505090806002015490508356fea165627a7a72305820b4fb1ee1fc2429fed05622b4456acacb049133463894d51e451ab1ae6f1a14dc0029",
  "source": "pragma solidity ^0.5.0 ;\r\n\r\ncontract Election {\r\n  // Model kandidata\r\n  struct Kandidat{\r\n  \tuint id;\r\n  \tstring ime;\r\n  \tuint brojGlasova;\r\n  }\r\n  //Spremanje kandidata po id-u\r\n  mapping(uint => Kandidat) public kandidati;\r\n\r\n  mapping(address => bool) public glasaci;\r\n  //Spremanje broja kandidata\r\n  uint public brojKandidata;\r\n\r\n // voted event\r\n    event votedEvent (\r\n        uint indexed _candidateId\r\n    );\r\n\r\n  constructor() public {\r\n        dodajKandidata(\"Donald Trump\");\r\n        dodajKandidata(\"Dwayne 'The Rock' Johnson\");\r\n    }\r\n\r\n  function dodajKandidata (string memory _ime) private {\r\n        brojKandidata ++; // povecanje broja kandidata\r\n        kandidati[brojKandidata] = Kandidat(brojKandidata, _ime, 0); // dodajemo kandidata na listu i stavljamo mu broj glasova na 0\r\n    }\r\n\r\n  function glasaj (uint _kandidatId) public {\r\n  \t\t//kako bi adresa mogla glasati ne smije biti vec na popisu glasaca\r\n  \t\trequire(!glasaci[msg.sender]);\r\n\r\n  \t\t// mora postojati kandidat za kojeg se glasa\r\n  \t\trequire(_kandidatId > 0 && _kandidatId <= brojKandidata);\r\n\r\n  \t\t// zapis adrese koja je glasala\r\n  \t\tglasaci[msg.sender] = true;\r\n\r\n  \t\t// promjena broja glasova kandidata\r\n  \t\tkandidati[_kandidatId].brojGlasova++;\r\n\r\n  \t\t// trigger voted event\r\n  \t\temit votedEvent(_kandidatId);\r\n  }\r\n}",
  "sourcePath": "D:/Faks/BCA/contracts/Election.sol",
  "compiler": {
    "name": "solc",
    "version": "0.5.8+commit.23d335f2.Emscripten.clang"
  },
  "schemaVersion": "3.0.16",
  "updatedAt": "2019-09-13T13:50:33.873Z",
  "devdoc": {
    "methods": {}
  },
  "userdoc": {
    "methods": {}
  }
}